{
  "_format": "hh-sol-artifact-1",
  "contractName": "PaymentProcessor",
  "sourceName": "contracts/PaymentProcessor.sol",
  "abi": [
    {
      "inputs": [
        {
          "internalType": "address",
          "name": "_merchant",
          "type": "address"
        }
      ],
      "stateMutability": "nonpayable",
      "type": "constructor"
    },
    {
      "anonymous": false,
      "inputs": [
        {
          "indexed": true,
          "internalType": "bytes32",
          "name": "orderId",
          "type": "bytes32"
        },
        {
          "indexed": true,
          "internalType": "address",
          "name": "payer",
          "type": "address"
        },
        {
          "indexed": false,
          "internalType": "uint256",
          "name": "amount",
          "type": "uint256"
        }
      ],
      "name": "Paid",
      "type": "event"
    },
    {
      "anonymous": false,
      "inputs": [
        {
          "indexed": true,
          "internalType": "address",
          "name": "merchant",
          "type": "address"
        },
        {
          "indexed": false,
          "internalType": "uint256",
          "name": "amount",
          "type": "uint256"
        }
      ],
      "name": "Withdrawn",
      "type": "event"
    },
    {
      "inputs": [
        {
          "internalType": "address",
          "name": "",
          "type": "address"
        }
      ],
      "name": "balances",
      "outputs": [
        {
          "internalType": "uint256",
          "name": "",
          "type": "uint256"
        }
      ],
      "stateMutability": "view",
      "type": "function"
    },
    {
      "inputs": [],
      "name": "merchant",
      "outputs": [
        {
          "internalType": "address",
          "name": "",
          "type": "address"
        }
      ],
      "stateMutability": "view",
      "type": "function"
    },
    {
      "inputs": [
        {
          "internalType": "bytes32",
          "name": "",
          "type": "bytes32"
        }
      ],
      "name": "orderAmount",
      "outputs": [
        {
          "internalType": "uint256",
          "name": "",
          "type": "uint256"
        }
      ],
      "stateMutability": "view",
      "type": "function"
    },
    {
      "inputs": [
        {
          "internalType": "bytes32",
          "name": "orderId",
          "type": "bytes32"
        }
      ],
      "name": "pay",
      "outputs": [],
      "stateMutability": "payable",
      "type": "function"
    },
    {
      "inputs": [
        {
          "internalType": "uint256",
          "name": "amount",
          "type": "uint256"
        }
      ],
      "name": "withdraw",
      "outputs": [],
      "stateMutability": "nonpayable",
      "type": "function"
    }
  ],
  "bytecode": "0x60a06040523480156200001157600080fd5b5060405162000d1a38038062000d1a83398181016040528101906200003791906200014e565b600073ffffffffffffffffffffffffffffffffffffffff168173ffffffffffffffffffffffffffffffffffffffff1603620000a9576040517f08c379a0000000000000000000000000000000000000000000000000000000008152600401620000a090620001e1565b60405180910390fd5b8073ffffffffffffffffffffffffffffffffffffffff1660808173ffffffffffffffffffffffffffffffffffffffff16815250505062000203565b600080fd5b600073ffffffffffffffffffffffffffffffffffffffff82169050919050565b60006200011682620000e9565b9050919050565b620001288162000109565b81146200013457600080fd5b50565b60008151905062000148816200011d565b92915050565b600060208284031215620001675762000166620000e4565b5b6000620001778482850162000137565b91505092915050565b600082825260208201905092915050565b7f6d65726368616e743d3000000000000000000000000000000000000000000000600082015250565b6000620001c9600a8362000180565b9150620001d68262000191565b602082019050919050565b60006020820190508181036000830152620001fc81620001ba565b9050919050565b608051610ad16200024960003960008181610153015281816101e501528181610286015281816102f9015281816103c30152818161050201526105c50152610ad16000f3fe60806040526004361061004a5760003560e01c806327e235e31461004f5780632e1a7d4d1461008c578063857c7ad6146100b55780638609cad1146100f2578063a5ff76511461010e575b600080fd5b34801561005b57600080fd5b506100766004803603810190610071919061064a565b610139565b6040516100839190610690565b60405180910390f35b34801561009857600080fd5b506100b360048036038101906100ae91906106d7565b610151565b005b3480156100c157600080fd5b506100dc60048036038101906100d7919061073a565b610433565b6040516100e99190610690565b60405180910390f35b61010c6004803603810190610107919061073a565b61044b565b005b34801561011a57600080fd5b506101236105c3565b6040516101309190610776565b60405180910390f35b60006020528060005260406000206000915090505481565b7f000000000000000000000000000000000000000000000000000000000000000073ffffffffffffffffffffffffffffffffffffffff163373ffffffffffffffffffffffffffffffffffffffff16146101df576040517f08c379a00000000000000000000000000000000000000000000000000000000081526004016101d6906107ee565b60405180910390fd5b806000807f000000000000000000000000000000000000000000000000000000000000000073ffffffffffffffffffffffffffffffffffffffff1673ffffffffffffffffffffffffffffffffffffffff168152602001908152602001600020541015610280576040517f08c379a00000000000000000000000000000000000000000000000000000000081526004016102779061085a565b60405180910390fd5b806000807f000000000000000000000000000000000000000000000000000000000000000073ffffffffffffffffffffffffffffffffffffffff1673ffffffffffffffffffffffffffffffffffffffff16815260200190815260200160002060008282546102ee91906108a9565b9250508190555060007f000000000000000000000000000000000000000000000000000000000000000073ffffffffffffffffffffffffffffffffffffffff168260405161033b9061090e565b60006040518083038185875af1925050503d8060008114610378576040519150601f19603f3d011682016040523d82523d6000602084013e61037d565b606091505b50509050806103c1576040517f08c379a00000000000000000000000000000000000000000000000000000000081526004016103b89061096f565b60405180910390fd5b7f000000000000000000000000000000000000000000000000000000000000000073ffffffffffffffffffffffffffffffffffffffff167f7084f5476618d8e60b11ef0d7d3f06914655adb8793e28ff7f018d4c76d505d5836040516104279190610690565b60405180910390a25050565b60016020528060005260406000206000915090505481565b6000341161048e576040517f08c379a0000000000000000000000000000000000000000000000000000000008152600401610485906109db565b60405180910390fd5b60006001600083815260200190815260200160002054146104e4576040517f08c379a00000000000000000000000000000000000000000000000000000000081526004016104db90610a47565b60405180910390fd5b346001600083815260200190815260200160002081905550346000807f000000000000000000000000000000000000000000000000000000000000000073ffffffffffffffffffffffffffffffffffffffff1673ffffffffffffffffffffffffffffffffffffffff168152602001908152602001600020600082825461056a9190610a67565b925050819055503373ffffffffffffffffffffffffffffffffffffffff16817f606160394df2742a67735645b7e783304d61d2dbc5b550e8c6acfaf27b6291d7346040516105b89190610690565b60405180910390a350565b7f000000000000000000000000000000000000000000000000000000000000000081565b600080fd5b600073ffffffffffffffffffffffffffffffffffffffff82169050919050565b6000610617826105ec565b9050919050565b6106278161060c565b811461063257600080fd5b50565b6000813590506106448161061e565b92915050565b6000602082840312156106605761065f6105e7565b5b600061066e84828501610635565b91505092915050565b6000819050919050565b61068a81610677565b82525050565b60006020820190506106a56000830184610681565b92915050565b6106b481610677565b81146106bf57600080fd5b50565b6000813590506106d1816106ab565b92915050565b6000602082840312156106ed576106ec6105e7565b5b60006106fb848285016106c2565b91505092915050565b6000819050919050565b61071781610704565b811461072257600080fd5b50565b6000813590506107348161070e565b92915050565b6000602082840312156107505761074f6105e7565b5b600061075e84828501610725565b91505092915050565b6107708161060c565b82525050565b600060208201905061078b6000830184610767565b92915050565b600082825260208201905092915050565b7f6e6f74206d65726368616e740000000000000000000000000000000000000000600082015250565b60006107d8600c83610791565b91506107e3826107a2565b602082019050919050565b60006020820190508181036000830152610807816107cb565b9050919050565b7f696e73756666696369656e740000000000000000000000000000000000000000600082015250565b6000610844600c83610791565b915061084f8261080e565b602082019050919050565b6000602082019050818103600083015261087381610837565b9050919050565b7f4e487b7100000000000000000000000000000000000000000000000000000000600052601160045260246000fd5b60006108b482610677565b91506108bf83610677565b92508282039050818111156108d7576108d661087a565b5b92915050565b600081905092915050565b50565b60006108f86000836108dd565b9150610903826108e8565b600082019050919050565b6000610919826108eb565b9150819050919050565b7f73656e64206661696c6564000000000000000000000000000000000000000000600082015250565b6000610959600b83610791565b915061096482610923565b602082019050919050565b600060208201905081810360008301526109888161094c565b9050919050565b7f6e6f204554480000000000000000000000000000000000000000000000000000600082015250565b60006109c5600683610791565b91506109d08261098f565b602082019050919050565b600060208201905081810360008301526109f4816109b8565b9050919050565b7f6f72646572206578697374730000000000000000000000000000000000000000600082015250565b6000610a31600c83610791565b9150610a3c826109fb565b602082019050919050565b60006020820190508181036000830152610a6081610a24565b9050919050565b6000610a7282610677565b9150610a7d83610677565b9250828201905080821115610a9557610a9461087a565b5b9291505056fea26469706673582212206910527895ed72b629bf91d2a35bdd4faa1702cd347322a02b6a43327bd9505b64736f6c63430008180033",
  "linkReferences": {},
  "deployedLinkReferences": {}
}